:020000040800F2
:1000000000500020611A0008B90E0008BF0E000859
:10001000C50E0008CB0E0008D10E0008000000003D
:10002000000000000000000000000000D70E0008E3
:10003000E30E000800000000EF0E0008FB0E0008B1
:10004000A91A0008A91A0008A91A0008A91A000884
:10005000A91A0008A91A0008A91A0008070F000821
:10006000A91A0008A91A0008150F0008A91A000803
:10007000A91A0008A91A0008A91A0008A91A000854
:10008000A91A0008A91A0008A91A0008A91A000844
:10009000A91A0008A91A0008A91A0008A91A000834
:1000A000A91A0008250F0008A91A0008A91A0008B3
:1000B000A91A0008A91A0008A91A0008A91A000814
:1000C000A91A0008A91A0008A91A0008A91A000804
:1000D000A91A0008A91A0008A91A0008A91A0008F4
:1000E000A91A0008A91A0008A91A000800000000AF
:1000F0000000000000000000000000000000000000
:0C01000000000000000000005FF808F1A3
:10010C0010B5054C237833B9044B13B10448AFF345
:10011C0000800123237010BD8C0000200000000023
:10012C004C4B000808B5034B1BB103490348AFF314
:10013C00008008BD00000000900000204C4B00081F
:10014C0080B582B000AF7860044A7B6813600020F1
:10015C0000F006F800BF0837BD4680BDA80000209F
:10016C0080B584B000AF0346FB71FB79002B01D046
:10017C00802300E00023FB73002000F03DF80346D1
:10018C005BB203F07F035AB297F90F3013435BB2A3
:10019C00DBB21946002000F011F800BF1037BD4645
:1001AC0080BD80B500AF002000F026F80346DB11BF
:1001BC00DBB203F00103DBB2184680BD80B586B01C
:1001CC0002AF03460A46FB711346BB71FB793B73C6
:1001DC00BB797B73074B186807F10C024FF47A73E9
:1001EC0000930223D02102F0E7F800BF1037BD4680
:1001FC0080BD00BFA800002080B586B002AF0346CA
:10020C00FB710D4B1868FA1D4FF47A7300930123A0
:10021C00D02102F0D1F8084B186807F10F024FF407
:10022C007A7300930123D02102F0C4F9FB7B1846AA
:10023C001037BD4680BD00BFA800002080B500AFC0
:10024C000320FFF7D9FF0346184600F01DF90346BB
:10025C00184680BD80B500AF0420FFF7CDFF0346E4
:10026C00184600F011F90346184680BD80B500AF62
:10027C000520FFF7C1FF0346184600F005F90346B9
:10028C00184680BD80B582B000AF1020FFF7B4FFD8
:10029C0003469BB21A46920013441A4691001A4622
:1002AC000B4613449B00FB800620FFF7A5FF03467B
:1002BC00184600F0E9F803469AB2FB8813449BB247
:1002CC0018460837BD4680BD80B500AF0220FFF749
:1002DC0093FF034603F03F03DBB2184600F0D4F85B
:1002EC000346184680BD80B500AF0120FFF784FFA0
:1002FC000346184600F0C8F80346184680BD80B582
:10030C0000AF0020FFF778FF034603F07F03DBB25A
:10031C00184600F0B9F80346184680BD80B582B087
:10032C0000AF0346FB71FB79184600F0C5F8034695
:10033C0019460320FFF742FF00BF0837BD4680BDBA
:10034C0080B582B000AF0346FB71FB79184600F014
:10035C00B3F8034619460420FFF730FF00BF0837F7
:10036C00BD4680BD80B582B000AF0346FB71FB7902
:10037C00184600F0A1F8034619460520FFF71EFFAA
:10038C0000BF0837BD4680BD80B582B000AF0346C4
:10039C00FB80FB88104AA2FB03235B099BB2DBB2F8
:1003AC0019461020FFF70AFFFB880B4AA2FB031229
:1003BC005209642101FB02F29B1A9BB2DBB2184674
:1003CC0000F07AF8034619460620FFF7F7FE00BF47
:1003DC000837BD4680BD00BF1F85EB5180B582B08C
:1003EC0000AF0346FB71FB7903F03F03DBB2184609
:1003FC0000F062F8034619460220FFF7DFFE00BF4B
:10040C000837BD4680BD80B582B000AF0346FB7196
:10041C00FB79184600F050F8034619460120FFF707
:10042C00CDFE00BF0837BD4680BD80B584B000AF9F
:10043C000346FB71FFF7B5FE0346FB73FA79FB7BB2
:10044C001343DBB2184600F037F803461946002078
:10045C00FFF7B4FE00BF1037BD4680BD80B582B03B
:10046C0000AF03460A46FB711346BB71FB79194674
:10047C000820FFF7A3FEBB7919460920FFF79EFE63
:10048C0000BF0837BD4680BD80B483B000AF0346C3
:10049C00FB71FB791B09DBB21A46920013445B001B
:1004AC00DAB2FB7903F00F03DBB21344DBB218466C
:1004BC000C37BD4680BC704780B483B000AF034698
:1004CC00FB71FA790C4BA3FB0213D9080B469B006A
:1004DC000B445B00D31ADAB2FB790749A1FB031377
:1004EC00DB08DBB21B01DBB21344DBB218460C3762
:1004FC00BD4680BC704700BFCDCCCCCC80B582B0A3
:10050C0000AF0346FB71384AFB791370374B082256
:10051C001A70374B00221A70334B1B78012B07D9FA
:10052C00334B1B7843F00803DAB2314B1A7006E0F8
:10053C002F4B1B7843F00403DAB22D4B1A7000F0EA
:10054C00EDF9322001F00EFB284B1B78184600F019
:10055C00ABF94FF47A7001F005FB302000F093F901
:10056C0041F2941000F002FA302000F08CF941F2C4
:10057C00941000F0FBF9302000F085F941F2941052
:10058C0000F0F4F9202000F07EF9642000F0EEF980
:10059C00174B1B7843F02003DBB2184600F036F9FA
:1005AC00144B04221A7000F075F800F02BF8124B63
:1005BC0002221A70104B1B7843F00403DBB218466E
:1005CC0000F024F941F2941000F0D0F90B4900200E
:1005DC0000F0B8F80A49012000F0B4F800F01DF85A
:1005EC0000BF0837BD4680BDAF000020B000002022
:1005FC00AC000020AD000020AE0000200000002068
:10060C000800002080B500AF012000F0FFF84FF487
:10061C00FA6000F0ABF900BF80BD80B500AF0220DE
:10062C0000F0F4F84FF4FA6000F0A0F900BF80BDC0
:10063C0090B587B000AF03460A46FB711346BB71F9
:10064C00124B07F108040FCB84E80F00104B1B78FA
:10065C00BA799A4203D30E4B1B78013BBB71BB7921
:10066C009B0018333B4453F8103CDAB2FB7913442B
:10067C00DBB25BB263F07F035BB2DBB2184600F017
:10068C00C5F800BF1C37BD4690BD00BF644B0008C9
:10069C00AF00002080B500AF084B1B7843F004037B
:1006AC00DAB2064B1A70054B1B7843F00803DBB229
:1006BC00184600F0ABF800BF80BD00BFAD000020B5
:1006CC0080B500AF084B1B7823F00203DAB2064B5F
:1006DC001A70054B1B7843F00803DBB2184600F088
:1006EC0095F800BF80BD00BFAD00002080B500AF05
:1006FC00084B1B7843F00203DAB2064B1A70054B19
:10070C001B7843F00803DBB2184600F07FF800BFFB
:10071C0080BD00BFAD00002080B500AF084B1B783A
:10072C0043F00103DAB2064B1A70054B1B7843F009
:10073C000803DBB2184600F069F800BF80BD00BFAB
:10074C00AD00002080B584B000AF03463960FB716A
:10075C00FB7903F00703FB71FB79DB005BB243F021
:10076C0040035BB2DBB2184600F050F80023FB608C
:10077C0009E0FB683A6813441B78184600F054F8FB
:10078C00FB680133FB60FB68072BF2DD00BF00BF89
:10079C001037BD4680BD80B582B000AF0346FB71FB
:1007AC00FB79184600F040F800BF0837BD4680BD05
:1007BC0080B582B000AF786006E07B685A1C7A6026
:1007CC001B78184600F030F87B681B78002BF4D1AE
:1007DC0000BF00BF0837BD4680BD000080B500AF2C
:1007EC00034B00221A70002000F05EF800BF80BDA1
:1007FC00B000002080B500AF034B08221A70002017
:10080C0000F052F800BF80BDB000002080B582B06F
:10081C0000AF0346FB71FB790021184600F012F87B
:10082C0000BF0837BD4680BD80B582B000AF03461F
:10083C00FB71FB790121184600F004F800BF083762
:10084C00BD4680BD80B584B000AF03460A46FB713F
:10085C001346BB71FB7923F00F03FB73FB791B0170
:10086C00BB73FA7BBB791343DBB2184600F00BF871
:10087C00BA7BBB791343DBB2184600F004F800BF17
:10088C001037BD4680BD80B582B000AF0346FB710A
:10089C00FB79184600F008F8FB79184600F020F8B0
:1008AC0000BF0837BD4680BD80B586B002AF034699
:1008BC00FB71094B1A78FB791343DBB2FB7307F11D
:1008CC000F020A23009301234E21044801F074FD0A
:1008DC0000BF1037BD4680BDB0000020B400002022
:1008EC0080B582B000AF0346FB71FB7943F0040383
:1008FC00DBB21846FFF7D8FF142000F037F8FB796D
:10090C0023F00403DBB21846FFF7CEFF142000F0EF
:10091C002DF800BF0837BD4680BD000080B400AF85
:10092C00104BDB680F4A23F08073D3600D4BDB68F0
:10093C000C4A43F08073D3600B4B1B680A4A23F0BC
:10094C0001031360084B1B68074A43F00103136053
:10095C00054B00225A6000BF00BF00BF00BFBD4660
:10096C0080BC7047F0ED00E0001000E080B487B070
:10097C0000AF78600D4B1B680D4AA2FB03239A0C49
:10098C007B6802FB03F37B610A4B5B683B61094BA1
:10099C005A683B69D31AFB60FB687A699A42F6D8AD
:1009AC0000BF00BF1C37BD4680BC70471000002044
:1009BC0083DE1B43001000E080B500AF01F070F83F
:1009CC0000F04CF800F038F900F088F800F0B4F8BA
:1009DC0000F0E0F80220FFF791FDFFF713FE1D4831
:1009EC00FFF7AEFB00210720FFF738FD0720FFF7CC
:1009FC00A7FC0520FFF7B6FC1820FFF7C5FC032069
:100A0C00FFF78CFC0020FFF7E9FC0020FFF7FBFC54
:100A1C000020FFF70AFD104B1B78032B16D801A200
:100A2C0052F823F0410A0008470A00084D0A000852
:100A3C00530A000800F014FB08E000F02BFC05E062
:100A4C0000F01AFE02E000F037FF00BF0A2001F0B0
:100A5C0089F8E0E708010020A401002080B590B0DF
:100A6C0000AF07F1180328220021184603F0E6FB1B
:100A7C003B1D00221A605A609A60DA601A610223E8
:100A8C00BB610123BB621023FB6202237B63002347
:100A9C00BB634FF48013FB6307F11803184602F095
:100AAC007BFB0346002B01D000F036F90F237B6053
:100ABC000223BB600023FB6000233B6100237B61AE
:100ACC003B1D0021184602F0E9FD0346002B01D026
:100ADC0000F022F900BF4037BD4680BD80B500AFA5
:100AEC00124B134A1A60114B124A5A600F4B0022D8
:100AFC009A600E4B0022DA600C4B4FF480421A6164
:100B0C000A4B00225A61094B00229A61074B0022C2
:100B1C00DA61064B00221A62044801F009FB034615
:100B2C00002B01D000F0F8F800BF80BDB40000200D
:100B3C0000540040A086010080B500AF124B134A50
:100B4C001A60114B124A5A600F4B00229A600E4BDE
:100B5C000022DA600C4B4FF480421A610A4B0022DF
:100B6C005A61094B00229A61074B0022DA61064B4D
:100B7C0000221A62044801F0DBFA0346002B01D074
:100B8C0000F0CAF800BF80BD0801002000580040EA
:100B9C00A086010080B586B000AF07F108030022E3
:100BAC001A605A609A60DA603B4600221A605A60FA
:100BBC001F4B204A1A601E4B45F6BF525A601C4B05
:100BCC0000229A601A4B40F2E732DA60184B00228E
:100BDC001A61174B00225A61154B80229A611448F6
:100BEC0002F0D6FE0346002B01D000F095F84FF42E
:100BFC008053BB6007F1080319460D4803F0A0F8B9
:100C0C000346002B01D000F087F800233B60002343
:100C1C007B603B461946064803F076FA0346002BE8
:100C2C0001D000F079F800BF1837BD4680BD00BF79
:100C3C005C010020002C014080B586B000AF07F1AC
:100C4C00080300221A605A609A60DA602D4B9B6987
:100C5C002C4A43F0040393612A4B9B6903F0040371
:100C6C007B607B68274B9B69264A43F008039361A2
:100C7C00244B9B6903F008033B603B681023BB606B
:100C8C00214BFB6002233B6107F1080319461F4807
:100C9C0001F09AF82023BB600023FB6002233B6128
:100CAC0007F108031946194801F08EF80123BB60BF
:100CBC000023FB6002233B6107F10803194614482B
:100CCC0001F082F80223BB60124BFB6002233B61F4
:100CDC0007F1080319460E4801F076F800220021AE
:100CEC00072001F03AF8072001F053F80022002108
:100CFC000A2001F032F80A2001F04BF800BF183737
:100D0C00BD4680BD001002400000111000080140DB
:100D1C00000C01400000311080B400AF72B600BF6F
:100D2C00FEE7000080B485B000AF154B9B69144AF8
:100D3C0043F001039361124B9B6903F00103BB6009
:100D4C00BB680F4BDB690E4A43F08053D3610C4BED
:100D5C00DB6903F080537B607B680A4B5B68FB604C
:100D6C00FB6823F0E063FB60FB6843F00073FB60FF
:100D7C00044AFB68536000BF1437BD4680BC704703
:100D8C00001002400000014080B58AB000AF7860CE
:100D9C0007F1180300221A605A609A60DA607B68C7
:100DAC001B682B4A934224D12A4B9B69294A43F056
:100DBC0008039361274B9B6903F008037B617B69F4
:100DCC00C023BB611223FB6103237B6207F1180371
:100DDC001946214800F0F8FF1E4BDB691D4A43F40D
:100DEC000013D3611B4BDB6903F400133B613B69BC
:100DFC0029E07B681B68194A934224D1154B9B69E7
:100E0C00144A43F008039361124B9B6903F00803E7
:100E1C00FB60FB684FF44063BB611223FB6103234F
:100E2C007B6207F1180319460B4800F0CDFF094B04
:100E3C00DB69084A43F48003D361064BDB6903F496
:100E4C008003BB60BB6800BF2837BD4680BD00BFB8
:100E5C000054004000100240000C014000580040BB
:100E6C0080B584B000AF78607B681B680D4A9342F4
:100E7C0013D10D4B9B690C4A43F4006393610A4BED
:100E8C009B6903F40063FB60FB68002200211920BE
:100E9C0000F063FF192000F07CFF00BF1037BD4647
:100EAC0080BD00BF002C01400010024080B400AF98
:100EBC00FEE780B400AFFEE780B400AFFEE780B47D
:100ECC0000AFFEE780B400AFFEE780B400AF00BF18
:100EDC00BD4680BC704780B400AF00BFBD4680BC2F
:100EEC00704780B400AF00BFBD4680BC704780B572
:100EFC0000AF00F01BFE00BF80BD80B500AF02202C
:100F0C0001F0FEF800BF80BD80B500AF102001F0ED
:100F1C00F7F800BF80BD000080B500AF024802F0BA
:100F2C0007FE00BF80BD00BF5C01002080B586B00D
:100F3C0000AF7860144A154BD31A7B617B693B6117
:100F4C00134B1B68002B02D1114B124A1A60104B29
:100F5C001A687B6813443A699A4207D203F044F941
:100F6C0003460C221A604FF0FF3309E0084B1B6854
:100F7C00FB60074B1A687B681344054A1360FB68D7
:100F8C0018461837BD4680BD0050002000040000F4
:100F9C00A8010020E001002080B400AF00BFBD46D6
:100FAC0080BC704780B483B000AF0346FB80FB88E5
:100FBC00022B0CD10B4B1B780133DAB2094B1A7094
:100FCC00084B1B78032B02D9064B00221A70FB88A6
:100FDC00102B02D1044B01221A7000BF0C37BD46F6
:100FEC0080BC7047A4010020AC01002080B483B009
:100FFC0000AF78607B681B68154A934223D1154B70
:10100C001B780133DAB2134B1A70124B1B783B2B43
:10101C0002D9104B00221A700E4B1B783A2B05D9B3
:10102C000D4B1B780133DAB20B4B1A700A4B1B7841
:10103C003A2B08D9084B00221A70084B1B78013345
:10104C00DAB2064B1A7000BF0C37BD4680BC704735
:10105C00002C0140C5010020C4010020C301002068
:10106C00B0B58CB000AFFFF7F5F8034687F82F301A
:10107C00FFF7FCF8034687F82E30FFF703F9034619
:10108C00BB85FFF7DBF8034687F82B30FFF71CF91D
:10109C00034687F82A30FFF726F9034687F82930EC
:1010AC00FFF72DF9034687F82830704B07F10C0435
:1010BC001D460FCD0FC495E8070084E80700FFF725
:1010CC00A1FAFFF713FB00210020FFF7B1FA97F804
:1010DC002B30013B9B0030333B4453F8243C1846E7
:1010EC00FFF766FB2F20FFF756FB97F82F203B46A8
:1010FC005F49184603F0AAF83B461846FFF758FB21
:10110C002F20FFF748FB97F82E203B4658491846EE
:10111C0003F09CF83B461846FFF74AFB2F20FFF7DD
:10112C003AFBBA8D3B465249184603F08FF83B46C2
:10113C001846FFF73DFB01210020FFF779FA97F8DD
:10114C002A203B464A49184603F080F83B4618468D
:10115C00FFF72EFB3A20FFF71EFB97F829203B46A2
:10116C004349184603F072F83B461846FFF720FB3C
:10117C003A20FFF710FB97F828203B463C491846CD
:10118C0003F064F83B461846FFF712FBFFF798FA9A
:10119C004FF47A7000F0E6FC2021364800F098FFFE
:1011AC000346012B26D1642000F0DCFC20213148C1
:1011BC0000F08EFF0346012B1CD100BF20212D48CF
:1011CC0000F086FF0346012BF8D02B4B1B78DB433A
:1011DC00DAB2294B1A70284B1B78002B01D1FFF780
:1011EC00FDFA254B1B78002B01D0FFF703FB234B9B
:1011FC0000221A70224B1B78012B17D1214B1B7824
:10120C0097F82A209A4211D11F4B1B7897F8292066
:10121C009A420BD11D4B1B7897F828209A4205D186
:10122C00174B00221A70154B01221A70134B1B78A6
:10123C00012B17D1164B1B680133154A1360144B45
:10124C001B68642B02D9124B00221A60104B1B68CE
:10125C00312B01D8FFF7C2FA0D4B1B68322B01D989
:10126C00FFF7C8FA00BF3037BD46B0BD944B00083D
:10127C00904B000800080140C1010020B001002083
:10128C00C2010020BE010020BF010020C0010020CF
:10129C00B8010020B0B58AB000AFB04B3C461D463B
:1012AC000FCD0FC495E8070084E80700FFF7AAF9F3
:1012BC00FFF71CFA00210020FFF7BAF9A84B1B78A6
:1012CC00013B9B0028333B4453F8283C1846FFF75E
:1012DC006FFA2F20FFF75FFAA24B1B781A4607F123
:1012EC001C03A149184602F0B1FF07F11C03184674
:1012FC00FFF75EFA2F20FFF74EFA9C4B1B781A462D
:10130C0007F11C039849184602F0A0FF07F11C03D3
:10131C001846FFF74DFA2F20FFF73DFA944B1A6849
:10132C0007F11C039349184602F090FF07F11C03C8
:10133C001846FFF73DFA01210020FFF779F98E4B93
:10134C001B781A4607F11C038749184602F07EFFEA
:10135C0007F11C031846FFF72BFA3A20FFF71BFA8C
:10136C00864B1B781A4607F11C037F49184602F07E
:10137C006DFF07F11C031846FFF71AFA3A20FFF726
:10138C000AFA7F4B1B781A4607F11C03764918465C
:10139C0002F05CFF07F11C031846FFF709FA794BC2
:1013AC001B78794A127811461846FFF741F9FFF776
:1013BC00B3F92021754800F08BFE0346012B64D154
:1013CC00642000F0CFFB2021704800F081FE034622
:1013DC00012B5AD100BF20216C4800F079FE034646
:1013EC00012BF8D06A4B1B780133DAB2684B1A70B8
:1013FC00674B1B78072B02D9654B01221A70644B83
:10140C001B78012B05D1604B01221A705D4B052214
:10141C001A705F4B1B78022B05D15B4B01221A70A3
:10142C00584B03221A705A4B1B78032B05D1564B81
:10143C0001221A70534B00221A70554B1B78042B47
:10144C0005D1514B00221A704E4B0A221A70504B88
:10145C001B78052B05D14C4B00221A70494B0622E8
:10146C001A704B4B1B78062B05D1474B00221A7078
:10147C00444B04221A70464B1B78072B05D1424B68
:10148C0000221A703F4B02221A700121414800F0D1
:10149C001FFE0346012B40F0A880642000F062FB85
:1014AC0001213C4800F014FE0346012B40F09D80C6
:1014BC0000BF0121374800F00BFE0346012BF8D08A
:1014CC00334B1B78012B0CD12D4B1B780133DAB22B
:1014DC002B4B1A702A4B1B783B2B02D9284B002222
:1014EC001A702B4B1B78022B0CD1244B1B7801331D
:1014FC00DAB2224B1A70214B1B783B2B02D91F4BB3
:10150C0000221A70224B1B78032B0CD11A4B1B7820
:10151C000133DAB2184B1A70174B1B78172B02D900
:10152C00154B00221A701A4B1B78042B0BD1104B45
:10153C001B6801330E4A13600D4B1B681A2B02D922
:10154C000B4B16221A60124B1B78052B2BD1074B19
:10155C001B780133DAB2054B1A701DE0944B00086E
:10156C001C000020BC010020904B0008BD01002095
:10157C0018000020B04B0008BE010020BF01002065
:10158C00C0010020150000201400002000080140BC
:10159C00AD010020000C01402D4B1B780C2B02D907
:1015AC002B4B01221A702B4B1B78062B0CD12A4B80
:1015BC001B780133DAB2284B1A70274B1B781F2B80
:1015CC0002D9254B01221A70224B1B78072B0CD108
:1015DC00224B1B780133DAB2204B1A701F4B1B784D
:1015EC00072B02D91D4B01221A701D4B1B78012BA6
:1015FC0029D1194B1B781846FEF7A2FE144B1B7809
:10160C001846FEF7AFFE174B1B689BB21846FEF749
:10161C00BBFE124B1B781846FEF780FE124B1B7854
:10162C001846FEF7DBFE114B1B781846FEF7EBFE57
:10163C000F4B1B781846FEF7F8FE094B00221A7068
:10164C000C4B00221A7000BF2837BD46B0BD00BF3E
:10165C00BD010020AD010020BC0100201C000020B9
:10166C00AC01002018000020BE010020BF010020AA
:10167C00C0010020A401002080B584B000AFFEF7AB
:10168C00C1FFFFF733F800210020FEF7D1FF7D48A2
:10169C00FFF78EF801210020FEF7CAFF7A4B1B786A
:1016AC001A463B1D7949184602F0D0FD3B1D1846E1
:1016BC00FFF77EF83A20FFF76EF8754B1B781A4649
:1016CC003B1D7249184602F0C1FD3B1D1846FFF741
:1016DC006FF83A20FFF75FF86E4B1B781A463B1DEC
:1016EC006A49184602F0B2FD3B1D1846FFF760F838
:1016FC00694B1B78694A127811461846FEF798FF19
:10170C00FFF70AF82021664800F0E2FC0346012BA3
:10171C003CD1642000F026FA2021614800F0D8FC6E
:10172C000346012B32D100BF20215D4800F0D0FCD4
:10173C000346012BF8D05B4B1B780133DAB2594BC3
:10174C001A70584B1B78032B02D9564B01221A7076
:10175C00544B1B78012B05D1504B01221A704E4B68
:10176C0005221A704F4B1B78022B05D14B4B0122D3
:10177C001A70494B03221A704A4B1B78032B05D164
:10178C00464B01221A70444B01221A700121464823
:10179C0000F09EFC0346012B44D1642000F0E2F9DA
:1017AC000121414800F094FC0346012B3AD100BFC3
:1017BC0001213D4800F08CFC0346012BF8D0394B3D
:1017CC001B78012B0CD1334B1B780133DAB2314B24
:1017DC001A70304B1B783B2B02D92E4B00221A70FF
:1017EC00304B1B78022B0CD1294B1B780133DAB20E
:1017FC00274B1A70264B1B783B2B02D9244B00220B
:10180C001A70284B1B78032B0CD11F4B1B78013300
:10181C00DAB21D4B1A701C4B1B78172B02D91A4BC2
:10182C0000221A7020211E4800F052FC0346012BA6
:10183C0017D1642000F096F92021194800F048FCDB
:10184C000346012B0DD100BF2021154800F040FCB0
:10185C000346012BF8D0154B01221A70144B0022B1
:10186C001A70144B1B78012B08D1124B00221A70E2
:10187C000E4B01221A700E4B00221A7000BF10374B
:10188C00BD4680BDB44B0008BE010020904B000843
:10189C00BF010020C0010020150000201400002012
:1018AC0000080140AE010020000C0140C2010020E4
:1018BC00A4010020AC01002080B584B000AFFEF77D
:1018CC00A1FE00210020FEF7B3FE5548FEF770FF85
:1018DC0001210020FEF7ACFE524B1B781A463B1D33
:1018EC005149184602F0B2FC3B1D1846FEF760FF4A
:1018FC003A20FEF750FF4D4B1B781A463B1D4A49C8
:10190C00184602F0A3FC3B1D1846FEF751FF3A2087
:10191C00FEF741FF464B1B781A463B1D42491846C1
:10192C0002F094FC3B1D1846FEF742FF2E20FEF7FA
:10193C0032FF404B1A683B1D3F49184602F086FCAB
:10194C003B1D1846FEF734FFFEF7BAFE01213B485B
:10195C0000F0BEFB0346012B2BD1642000F002F9F2
:10196C000121364800F0B4FB0346012B21D100BF06
:10197C000121324800F0ACFB0346012BF8D0304B70
:10198C001B78DB43DAB22E4B1A702D4B1B78002BD5
:10199C0008D02C4802F04CF82A4B1B685B6A254A8D
:1019AC00136006E0264B1B78002B02D1254802F071
:1019BC0091F82021244800F08BFB0346012B14D115
:1019CC00642000F0CFF820211F4800F081FB034673
:1019DC00012B0AD100BF20211B4800F079FB0346E4
:1019EC00012BF8D0194B00221A70194B1B78012BC4
:1019FC0012D10C4B00221A700C4B00221A700C4B9B
:101A0C0000221A700B4B00221A600E4B1B6800222E
:101A1C005A620F4B00221A7000BF1037BD4680BDB2
:101A2C00C04B0008C3010020904B0008C4010020EB
:101A3C00C5010020B4010020B04B0008000C01408F
:101A4C00AF0100205C01002000080140A40100202F
:101A5C00AC010020FFF7A0FA0B480C490C4A0023FC
:101A6C0002E0D458C4500433C4188C42F9D3094A48
:101A7C00094C002301E013600432A242FBD302F0B4
:101A8C00B9FBFEF799FF7047000000208C00002086
:101A9C00344C00088C000020DC010020FEE7000024
:101AAC0080B500AF084B1B68074A43F01003136066
:101ABC00032000F047F90F2000F008F8FFF732F987
:101ACC000023184680BD00BF0020024080B582B0C4
:101ADC0000AF7860124B1A68124B1B7819464FF402
:101AEC007A73B3FBF1F3B2FBF3F3184600F05FF932
:101AFC000346002B01D001230EE07B680F2B0AD884
:101B0C00002279684FF0FF3000F027F9064A7B6815
:101B1C001360002300E0012318460837BD4680BD42
:101B2C0010000020240000202000002080B400AF12
:101B3C00054B1B781A46054B1B681344034A13606C
:101B4C0000BFBD4680BC704724000020C8010020A7
:101B5C0080B400AF024B1B681846BD4680BC704772
:101B6C00C801002080B584B000AF7860FFF7F0FFAB
:101B7C00B8607B68FB60FB68B3F1FF3F05D00A4B94
:101B8C001B781A46FB681344FB6000BFFFF7E0FFAD
:101B9C000246BB68D31AFA689A42F7D800BF00BF56
:101BAC001037BD4680BD00BF2400002080B485B036
:101BBC0000AF78607B6803F00703FB600C4BDB68BD
:101BCC00BB60BA684FF6FF031340BB60FB681A0298
:101BDC00BB68134343F0BF6343F40033BB60044A58
:101BEC00BB68D36000BF1437BD4680BC704700BFD4
:101BFC0000ED00E080B400AF044BDB681B0A03F07F
:101C0C0007031846BD4680BC704700BF00ED00E0DE
:101C1C0080B483B000AF0346FB7197F90730002BFB
:101C2C000BDBFB7903F01F02064997F907305B09C0
:101C3C00012000FA02F241F8232000BF0C37BD4608
:101C4C0080BC704700E100E080B483B000AF034675
:101C5C003960FB7197F90730002B0ADB3B68DAB26D
:101C6C000C4997F907301201D2B20B4483F80023C8
:101C7C000AE03B68DAB20849FB7903F00F03043B36
:101C8C001201D2B20B441A7600BF0C37BD4680BC91
:101C9C00704700BF00E100E000ED00E080B489B0C7
:101CAC0000AFF860B9607A60FB6803F00703FB6172
:101CBC00FB69C3F10703042B28BF0423BB61FB6939
:101CCC000433062B02D9FB69033B00E000237B6144
:101CDC004FF0FF32BB6902FA03F3DA43BB681A40D8
:101CEC007B699A404FF0FF317B6901FA03F3D943CA
:101CFC007B680B40134318462437BD4680BC7047A5
:101D0C0080B582B000AF78607B68013BB3F1807F17
:101D1C0001D301230FE00A4A7B68013B53600F217A
:101D2C004FF0FF30FFF790FF054B00229A60044BF9
:101D3C0007221A60002318460837BD4680BD00BF35
:101D4C0010E000E080B582B000AF78607868FFF7F3
:101D5C002DFF00BF0837BD4680BD80B586B000AFF3
:101D6C000346B9607A60FB7300237B61FFF742FF87
:101D7C0078617A68B9687869FFF790FF024697F93D
:101D8C000F3011461846FFF75FFF00BF1837BD46EE
:101D9C0080BD80B582B000AF0346FB7197F9073068
:101DAC001846FFF735FF00BF0837BD4680BD80B52C
:101DBC0082B000AF78607868FFF7A2FF0346184640
:101DCC000837BD4680BD000080B48BB000AF786092
:101DDC00396000237B6200233B6269E101227B6A4C
:101DEC0002FA03F3FB613B681B68FA691340BB61A1
:101DFC00BA69FB699A4240F058813B685B689A4A21
:101E0C0093425ED0984A934275D8984A934258D0E0
:101E1C00964A93426FD8964A934252D0944A934230
:101E2C0069D8944A93424CD0924A934263D8924ACE
:101E3C00934246D0904A93425DD8122B2AD8122B4B
:101E4C0059D801A252F823F0CF1E0008A91E000891
:101E5C00BB1E0008FD1E0008031F0008031F00081E
:101E6C00031F0008031F0008031F0008031F0008BE
:101E7C00031F0008031F0008031F0008031F0008AE
:101E8C00031F0008031F0008031F0008B11E0008F1
:101E9C00C51E0008794A934213D02CE03B68DB68DE
:101EAC003B6229E03B68DB6804333B6224E03B681F
:101EBC00DB6808333B621FE03B68DB680C333B623A
:101ECC001AE03B689B68002B02D104233B6213E0B1
:101EDC003B689B68012B05D108233B627B68FA6940
:101EEC001A6109E008233B627B68FA695A6103E0D6
:101EFC0000233B6200E000BFBB69FF2B01D87B686D
:101F0C0001E07B6804337B61BB69FF2B02D87B6AE1
:101F1C009B0002E07B6A083B9B003B617B691A6873
:101F2C000F213B6901FA03F3DB431A40396A3B6921
:101F3C0001FA03F31A437B691A603B685B6803F090
:101F4C008053002B00F0B1804D4B9B694C4A43F001
:101F5C00010393614A4B9B6903F00103BB60BB68AF
:101F6C00484A7B6A9B08023352F82330FB607B6A39
:101F7C0003F003039B000F2202FA03F3DB43FA681E
:101F8C001340FB607B68404A934213D07B683F4A06
:101F9C0093420DD07B683E4A934207D07B683D4A02
:101FAC00934201D1032306E0042304E0022302E060
:101FBC00012300E000237A6A02F0030292009340AE
:101FCC00FA681343FB602F497B6A9B080233FA685B
:101FDC0041F823203B685B6803F48013002B06D088
:101FEC002D4B9A682C49BB6913438B6006E02A4B36
:101FFC009A68BB69DB43284913408B603B685B687C
:10200C0003F40013002B06D0234BDA682249BB697A
:10201C001343CB6006E0204BDA68BB69DB431E49F7
:10202C001340CB603B685B6803F40033002B06D095
:10203C00194B5A681849BB6913434B6006E0164BA1
:10204C005A68BB69DB43144913404B603B685B68BF
:10205C0003F48033002B21D00F4B1A680E49BB6957
:10206C0013430B6021E000BF000032100000311060
:10207C0000002210000021100000121000001110AE
:10208C00001002400000014000080140000C01401B
:10209C000010014000140140000401400B4B1A6871
:1020AC00BB69DB43094913400B607B6A01337B62DC
:1020BC003B681A687B6A22FA03F3002B7FF48EAE1E
:1020CC0000BF00BF2C37BD4680BC704700040140E8
:1020DC0080B485B000AF78600B467B807B689A68D3
:1020EC007B881340002B02D00123FB7301E00023FB
:1020FC00FB73FB7B18461437BD4680BC7047000051
:10210C0080B582B000AF0346FB80084B5A69FB8850
:10211C001340002B06D0054AFB885361FB881846F8
:10212C00FEF740FF00BF0837BD4680BD00040140EC
:10213C0080B584B000AF78607B68002B01D101239F
:10214C002BE17B6893F83D30DBB2002B06D17B682A
:10215C00002283F83C207868FEF716FE7B68242268
:10216C0083F83D207B681B681A687B681B6822F02B
:10217C0001021A607B681B681A687B681B6842F452
:10218C0000421A607B681B681A687B681B6822F423
:10219C0000421A6001F0CAFBF8607B685B68814AF8
:1021AC00934207D8FB68804A934294BF01230023D3
:1021BC00DBB206E0FB687D4A934294BF0123002307
:1021CC00DBB2002B01D00123E7E0FB68784AA2FBCD
:1021DC0003239B0CBB607B681B685B6823F03F018F
:1021EC007B681B68BA680A435A607B681B681B6A69
:1021FC0023F03F017B685B686A4A934202D8BB6854
:10220C00013309E0BB684FF4967202FB03F3694A91
:10221C00A2FB03239B0901337A6812680B431362F8
:10222C007B681B68DB6923F44F4222F0FF027B685A
:10223C005B685C498B4219D8FB68591E7B685B68EC
:10224C005B00B1FBF3F3591C40F6FC730B40002B05
:10225C000AD0FB68591E7B685B685B00B1FBF3F32B
:10226C000133C3F30B0351E004234FE07B689B68FD
:10227C00002B11D1FB68581E7B6859680B465B001C
:10228C000B44B0FBF3F30133C3F30B03002B0CBF74
:10229C0001230023DBB212E0FB68581E7B685968EF
:1022AC000B469B000B4499000B44B0FBF3F301333A
:1022BC00C3F30B03002B0CBF01230023DBB2002B59
:1022CC0001D0012322E07B689B68002B0ED1FB68B8
:1022DC00581E7B6859680B465B000B44B0FBF3F34C
:1022EC000133C3F30B0343F400430FE0FB68581EA8
:1022FC007B6859680B469B000B4499000B44B0FB60
:10230C00F3F30133C3F30B0343F4404379680968D7
:10231C001343CB617B681B681B6823F0C0017B688F
:10232C00DA697B681B6A1A437B681B680A431A606C
:10233C007B681B689B6823F4034323F0FF037A68D4
:10234C0011697A68D26811437A6812680B439360FA
:10235C007B681B68DB6823F0FF017B685A697B682C
:10236C009B691A437B681B680A43DA607B681B68AD
:10237C001A687B681B6842F001021A607B680022B5
:10238C001A647B68202283F83D207B6800221A6344
:10239C007B68002283F83E20002318461037BD4688
:1023AC0080BD00BFA08601007F841E00FF083D0099
:1023BC0083DE1B43D34D621080B588B002AFF8604A
:1023CC007A601A460B467B8113463B81FFF7C0FBB4
:1023DC007861FB6893F83D30DBB2202B40F0E08055
:1023EC007B690093192301227049F86800F09EFC68
:1023FC000346002B01D00223D3E0FB6893F83C305A
:10240C00012B01D10223CCE0FB68012283F83C2094
:10241C00FB681B681B6803F00103012B07D0FB68EA
:10242C001B681A68FB681B6842F001021A60FB68A3
:10243C001B681A68FB681B6822F400621A60FB6850
:10244C00212283F83D20FB68102283F83E20FB6894
:10245C0000221A64FB687A685A62FB683A895A85CA
:10246C00FB685B8D9AB2FB681A85FB68504ADA628E
:10247C0079897B693A6AF86800F008FB0346002BFF
:10248C0001D001238DE000233B61FB681B685B6975
:10249C003B61FB681B689B693B613B6966E07A6941
:1024AC00396AF86800F05CFD0346002B0DD0FB6820
:1024BC001B6C042B07D1FB681B681A68FB681B6834
:1024CC0042F400721A6001236BE0FB685B6A1A78B5
:1024DC00FB681B681A61FB685B6A5A1CFB685A62D2
:1024EC00FB685B8D9BB2013B9AB2FB685A85FB681B
:1024FC001B8D013B9AB2FB681A85FB681B685B69F4
:10250C0003F00403042B1BD1FB681B8D002B17D08D
:10251C00FB685B6A1A78FB681B681A61FB685B6A6C
:10252C005A1CFB685A62FB685B8D9BB2013B9AB2EA
:10253C00FB685A85FB681B8D013B9AB2FB681A85B8
:10254C007A69396AF86800F053FD0346002B0DD008
:10255C00FB681B6C042B07D1FB681B681A68FB68B3
:10256C001B6842F400721A6001231AE0FB681B8D91
:10257C00002B94D1FB681B681A68FB681B6842F43B
:10258C0000721A60FB68202283F83D20FB68002251
:10259C0083F83E20FB68002283F83C20002300E0F7
:1025AC00022318461837BD4680BD00BF020010003C
:1025BC000000FFFF80B58CB002AFF8607A601A465D
:1025CC000B467B8113463B8100233B62FFF7C0FA2D
:1025DC007862FB6893F83D30DBB2202B40F04B82E5
:1025EC007B6A0093192301227F49F86800F09EFB57
:1025FC000346002B01D002233EE2FB6893F83C30EB
:10260C00012B01D1022337E2FB68012283F83C2025
:10261C00FB681B681B6803F00103012B07D0FB68E8
:10262C001B681A68FB681B6842F001021A60FB68A1
:10263C001B681A68FB681B6822F400621A60FB684E
:10264C00222283F83D20FB68102283F83E20FB6891
:10265C0000221A64FB687A685A62FB683A895A85C8
:10266C00FB685B8D9AB2FB681A85FB685F4ADA627D
:10267C0079897B6A3A6BF86800F08AFA0346002B7A
:10268C0001D00123F8E1FB681B8D002B13D1002333
:10269C00FB61FB681B685B69FB61FB681B689B69E2
:1026AC00FB61FB69FB681B681A68FB681B6842F4DA
:1026BC0000721A60CCE1FB681B8D012B1ED1FB68EC
:1026CC001B681A68FB681B6822F480621A6072B679
:1026DC0000BF0023BB61FB681B685B69BB61FB68C7
:1026EC001B689B69BB61BB69FB681B681A68FB684C
:1026FC001B6842F400721A6062B635E0FB681B8DF1
:10270C00022B1ED1FB681B681A68FB681B6842F41D
:10271C0000621A6072B600BF00237B61FB681B6805
:10272C005B697B61FB681B689B697B617B69FB68F0
:10273C001B681A68FB681B6822F480621A6062B618
:10274C0012E0FB681B681A68FB681B6842F4806225
:10275C001A6000233B61FB681B685B693B61FB688B
:10276C001B689B693B613B6972E1FB681B8D032B0A
:10277C0000F21F81FB681B8D012B23D17A6A396B08
:10278C00F86800F07DFC0346002B01D0012373E1B7
:10279C00FB681B681A69FB685B6AD2B21A70FB682B
:1027AC005B6A5A1CFB685A62FB681B8D013B9AB230
:1027BC00FB681A85FB685B8D9BB2013B9AB2FB6888
:1027CC005A8545E1FB681B8D022B52D17B6A009325
:1027DC003B6B00220649F86800F0A8FA0346002B70
:1027EC0008D0012348E100BF020010000000FFFFE9
:1027FC000400010072B600BFFB681B681A68FB6816
:10280C001B6842F400721A60FB681B681A69FB684B
:10281C005B6AD2B21A70FB685B6A5A1CFB685A621C
:10282C00FB681B8D013B9AB2FB681A85FB685B8DBC
:10283C009BB2013B9AB2FB685A8562B600BFFB683B
:10284C001B681A69FB685B6AD2B21A70FB685B6A18
:10285C005A1CFB685A62FB681B8D013B9AB2FB68E1
:10286C001A85FB685B8D9BB2013B9AB2FB685A855B
:10287C00EEE07B6A00933B6B00228149F86800F024
:10288C0055FA0346002B01D00123F5E0FB681B68C9
:10289C001A68FB681B6822F480621A6072B600BF6B
:1028AC00FB681B681A69FB685B6AD2B21A70FB681A
:1028BC005B6A5A1CFB685A62FB681B8D013B9AB21F
:1028CC00FB681A85FB685B8D9BB2013B9AB2FB6877
:1028DC005A856C4B1B68DB086B4AA2FB03231A0A54
:1028EC0013469B001344DA00D31A3B623B6A013B4C
:1028FC003B623B6A002B18D1FB6800221A63FB6811
:10290C00202283F83D20FB68002283F83E20FB68E0
:10291C001B6C43F02002FB681A6462B600BFFB68B4
:10292C00002283F83C200123A6E0FB681B685B694E
:10293C0003F00403042BD9D1FB681B681A68FB68ED
:10294C001B6842F400721A60FB681B681A69FB680A
:10295C005B6AD2B21A70FB685B6A5A1CFB685A62DB
:10296C00FB681B8D013B9AB2FB681A85FB685B8D7B
:10297C009BB2013B9AB2FB685A8562B600BFFB68FA
:10298C001B681A69FB685B6AD2B21A70FB685B6AD7
:10299C005A1CFB685A62FB681B8D013B9AB2FB68A0
:1029AC001A85FB685B8D9BB2013B9AB2FB685A851A
:1029BC004EE07A6A396BF86800F062FB0346002B34
:1029CC0001D0012358E0FB681B681A69FB685B6A3D
:1029DC00D2B21A70FB685B6A5A1CFB685A62FB68BD
:1029EC001B8D013B9AB2FB681A85FB685B8D9BB211
:1029FC00013B9AB2FB685A85FB681B685B6903F064
:102A0C000403042B24D1FB681B8D032B07D1FB681B
:102A1C001B681A68FB681B6822F480621A60FB68EA
:102A2C001B681A69FB685B6AD2B21A70FB685B6A36
:102A3C005A1CFB685A62FB681B8D013B9AB2FB68FF
:102A4C001A85FB685B8D9BB2013B9AB2FB685A8579
:102A5C00FB681B8D002B7FF488AEFB68202283F86B
:102A6C003D20FB68002283F83E20FB68002283F89F
:102A7C003C20002300E0022318462837BD4680BDC9
:102A8C00040001001000002089B5F81480B588B04E
:102A9C0002AFF8607A603B600B467B81FB68DB6AB7
:102AAC007B617B69082B06D07B69012B03D07B698A
:102ABC0013F5803F08D1FB681B681A68FB681B681C
:102ACC0042F480721A600BE0FB681B6B122B07D16F
:102ADC00FB681B681A68FB681B6842F480721A60FA
:102AEC003B6800937B6800224FF00111F86800F0FE
:102AFC001DF90346002B0DD0FB681B681B6803F403
:102B0C008073B3F5807F03D1FB684FF400721A64B5
:102B1C00032335E0FB681B69B3F5804F08D17B8933
:102B2C00DBB21A46FB681B6802F0FE021A611BE05E
:102B3C007B89DB11DBB203F00603DBB263F00F031E
:102B4C00DAB2FB681B681A613B687A680E49F86850
:102B5C0000F066F90346002B01D0012310E07B89BD
:102B6C00DAB2FB681B681A613B687A680749F86837
:102B7C0000F056F90346002B01D0012300E000239E
:102B8C0018461837BD4680BD080001000200010040
:102B9C0080B588B002AFF8607A603B600B467B81F1
:102BAC00FB68DB6A7B61FB681B681A68FB681B6847
:102BBC0042F480621A607B69082B06D07B69012B7A
:102BCC0003D07B6913F5803F08D1FB681B681A683A
:102BDC00FB681B6842F480721A600BE0FB681B6B8D
:102BEC00112B07D1FB681B681A68FB681B6842F441
:102BFC0080721A603B6800937B6800224FF00111D1
:102C0C00F86800F093F80346002B0DD0FB681B68A6
:102C1C001B6803F48073B3F5807F03D1FB684FF41A
:102C2C0000721A64032379E0FB681B69B3F5804FCB
:102C3C0008D17B89DBB243F00103DAB2FB681B6875
:102C4C001A615FE07B89DB11DBB203F00603DBB2B8
:102C5C0063F00F03DAB2FB681B681A613B687A6891
:102C6C003049F86800F0DCF80346002B01D0012352
:102C7C0054E07B89DAB2FB681B681A613B687A689E
:102C8C002949F86800F0CCF80346002B01D0012349
:102C9C0044E000233B61FB681B685B693B61FB689C
:102CAC001B689B693B613B69FB681B681A68FB6886
:102CBC001B6842F480721A603B6800937B680022A8
:102CCC004FF00111F86800F031F80346002B0DD0DD
:102CDC00FB681B681B6803F48073B3F5807F03D11A
:102CEC00FB684FF400721A64032317E07B89DB1135
:102CFC00DBB203F00603DBB263F00E03DAB2FB685F
:102D0C001B681A613B687A680749F86800F088F814
:102D1C000346002B01D0012300E00023184618378E
:102D2C00BD4680BD080001000200010080B584B0E2
:102D3C0000AFF860B9603B601346FB7148E03B683C
:102D4C00B3F1FF3F44D0FEF703FF0246BB69D31A31
:102D5C003A689A4202D33B68002B39D1BB681B0CF2
:102D6C00DBB2012B0DD1FB681B685B69DA43BB68D6
:102D7C0013409BB2002B0CBF01230023DBB21A467D
:102D8C000CE0FB681B689B69DA43BB6813409BB281
:102D9C00002B0CBF01230023DBB21A46FB799A42AD
:102DAC0016D1FB6800221A63FB68202283F83D20B1
:102DBC00FB68002283F83E20FB681B6C43F020026A
:102DCC00FB681A64FB68002283F83C20012323E093
:102DDC00BB681B0CDBB2012B0DD1FB681B685B695C
:102DEC00DA43BB6813409BB2002B0CBF01230023BA
:102DFC00DBB21A460CE0FB681B689B69DA43BB68C4
:102E0C0013409BB2002B0CBF01230023DBB21A46EC
:102E1C00FB799A4293D0002318461037BD4680BDEB
:102E2C0080B584B000AFF860B9607A603B6071E047
:102E3C00FB681B685B6903F48063B3F5806F23D177
:102E4C00FB681B681A68FB681B6842F400721A6006
:102E5C00FB681B686FF480625A61FB6800221A637E
:102E6C00FB68202283F83D20FB68002283F83E207B
:102E7C00FB681B6C43F00402FB681A64FB680022BD
:102E8C0083F83C20012367E07B68B3F1FF3F41D01E
:102E9C00FEF75EFE02463B68D31A7A689A4202D36A
:102EAC007B68002B36D1BB681B0CDBB2012B0CD121
:102EBC00FB681B685B69DA43BB6813409BB2002B51
:102ECC0014BF01230023DBB20BE0FB681B689B697A
:102EDC00DA43BB6813409BB2002B14BF01230023C1
:102EEC00DBB2002B16D0FB6800221A63FB68202291
:102EFC0083F83D20FB68002283F83E20FB681B6CA6
:102F0C0043F02002FB681A64FB68002283F83C2023
:102F1C00012321E0BB681B0CDBB2012B0CD1FB683D
:102F2C001B685B69DA43BB6813409BB2002B14BF70
:102F3C0001230023DBB20BE0FB681B689B69DA43BF
:102F4C00BB6813409BB2002B14BF01230023DBB2E0
:102F5C00002B7FF46DAF002318461037BD4680BDA3
:102F6C0080B584B000AFF860B9607A6034E0F8687E
:102F7C0000F0E3F80346002B01D0012334E0BB68DA
:102F8C00B3F1FF3F28D0FEF7E3FD02467B68D31A6E
:102F9C00BA689A4202D3BB68002B1DD1FB681B6830
:102FAC005B6903F08003802B16D0FB6800221A6348
:102FBC00FB68202283F83D20FB68002283F83E202A
:102FCC00FB681B6C43F02002FB681A64FB68002250
:102FDC0083F83C20012307E0FB681B685B6903F066
:102FEC008003802BC3D1002318461037BD4680BD0B
:102FFC0080B584B000AFF860B9607A6034E0F868EE
:10300C0000F09BF80346002B01D0012334E0BB6891
:10301C00B3F1FF3F28D0FEF79BFD02467B68D31A25
:10302C00BA689A4202D3BB68002B1DD1FB681B689F
:10303C005B6903F00403042B16D0FB6800221A63AF
:10304C00FB68202283F83D20FB68002283F83E2099
:10305C00FB681B6C43F02002FB681A64FB680022BF
:10306C0083F83C20012307E0FB681B685B6903F0D5
:10307C000403042BC3D1002318461037BD4680BD72
:10308C0080B584B000AFF860B9607A6049E0FB6845
:10309C001B685B6903F01003102B19D1FB681B68CC
:1030AC006FF010025A61FB6800221A63FB68202241
:1030BC0083F83D20FB68002283F83E20FB681A6CE5
:1030CC00FB681A64FB68002283F83C20012330E083
:1030DC00FEF73EFD02467B68D31ABA689A4202D3C9
:1030EC00BB68002B1DD1FB681B685B6903F04003B8
:1030FC00402B16D0FB6800221A63FB68202283F851
:10310C003D20FB68002283F83E20FB681B6C43F0DB
:10311C002002FB681A64FB68002283F83C20012320
:10312C0007E0FB681B685B6903F04003402BAED1E2
:10313C00002318461037BD4680BD80B483B000AF65
:10314C0078607B681B685B6903F48063B3F5806F00
:10315C001BD17B681B686FF480625A617B6800220C
:10316C001A637B68202283F83D207B68002283F859
:10317C003E207B681B6C43F004027B681A647B68FE
:10318C00002283F83C20012300E0002318460C3772
:10319C00BD4680BC7047000080B586B000AF78603B
:1031AC007B68002B01D1012372E27B681B6803F062
:1031BC000103002B00F08780924B5B6803F00C033B
:1031CC00042B0CD08F4B5B6803F00C03082B12D133
:1031DC008C4B5B6803F48033B3F5803F0BD1894B88
:1031EC001B6803F40033002B6CD07B685B68002BEE
:1031FC0068D101234CE27B685B68B3F5803F06D154
:10320C00804B1B687F4A43F4803313602EE07B684D
:10321C005B68002B0CD17B4B1B687A4A23F4803300
:10322C001360784B1B68774A23F4802313601DE0EE
:10323C007B685B68B3F5A02F0CD1724B1B68714A8D
:10324C0043F4802313606F4B1B686E4A43F4803346
:10325C0013600BE06B4B1B686A4A23F480331360DA
:10326C00684B1B68674A23F4802313607B685B6898
:10327C00002B13D0FEF76CFC386108E0FEF768FCFD
:10328C0002463B69D31A642B01D9032300E25D4B40
:10329C001B6803F40033002BF0D014E0FEF758FC4D
:1032AC00386108E0FEF754FC02463B69D31A642BE4
:1032BC0001D90323ECE1534B1B6803F40033002BBF
:1032CC00F0D100E000BF7B681B6803F00203002B09
:1032DC0063D04C4B5B6803F00C03002B0BD0494BB9
:1032EC005B6803F00C03082B1CD1464B5B6803F4A2
:1032FC008033002B16D1434B1B6803F00203002BC9
:10330C0005D07B681B69012B01D00123C0E13D4B2B
:10331C001B6823F0F8027B685B69DB0039491343B7
:10332C000B603AE07B681B69002B20D0364B0122E6
:10333C001A60FEF70DFC386108E0FEF709FC024646
:10334C003B69D31A022B01D90323A1E12D4B1B6836
:10335C0003F00203002BF0D02A4B1B6823F0F80279
:10336C007B685B69DB00274913430B6015E0264B38
:10337C0000221A60FEF7ECFB386108E0FEF7E8FB70
:10338C0002463B69D31A022B01D9032380E11D4B62
:10339C001B6803F00203002BF0D17B681B6803F061
:1033AC000803002B3AD07B689B69002B19D0174B74
:1033BC0001221A60FEF7CCFB386108E0FEF7C8FB6F
:1033CC0002463B69D31A022B01D9032360E10D4B52
:1033DC005B6A03F00203002BF0D0012000F0BAFA74
:1033EC001CE00A4B00221A60FEF7B2FB38610FE0BA
:1033FC00FEF7AEFB02463B69D31A022B08D9032316
:10340C0046E100BF001002400000424280044242EC
:10341C00924B5B6A03F00203002BE9D17B681B68BB
:10342C0003F00403002B00F0A6800023FB758B4BEC
:10343C00DB6903F08053002B0DD1884BDB69874A85
:10344C0043F08053D361854BDB6903F08053BB6041
:10345C00BB680123FB75824B1B6803F48073002B44
:10346C0018D17F4B1B687E4A43F480731360FEF7C0
:10347C006FFB386108E0FEF76BFB02463B69D31A21
:10348C00642B01D9032303E1754B1B6803F4807390
:10349C00002BF0D07B68DB68012B06D16F4B1B6ACD
:1034AC006E4A43F0010313622DE07B68DB68002B4E
:1034BC000CD16A4B1B6A694A23F001031362674BF8
:1034CC001B6A664A23F0040313621CE07B68DB680A
:1034DC00052B0CD1614B1B6A604A43F00403136249
:1034EC005E4B1B6A5D4A43F0010313620BE05B4BBE
:1034FC001B6A5A4A23F001031362584B1B6A574A42
:10350C0023F0040313627B68DB68002B15D0FEF7F5
:10351C001FFB38610AE0FEF71BFB02463B69D31A1E
:10352C0041F28832934201D90323B1E04B4B1B6A21
:10353C0003F00203002BEED014E0FEF709FB386118
:10354C000AE0FEF705FB02463B69D31A41F28832CA
:10355C00934201D903239BE0404B1B6A03F0020307
:10356C00002BEED1FB7D012B05D13C4BDB693B4A9B
:10357C0023F08053D3617B68DB69002B00F08780DC
:10358C00364B5B6803F00C03082B61D07B68DB695E
:10359C00022B46D1334B00221A60FEF7D9FA386160
:1035AC0008E0FEF7D5FA02463B69D31A022B01D983
:1035BC0003236DE0294B1B6803F00073002BF0D143
:1035CC007B681B6AB3F5803F08D1244B5B6823F4FE
:1035DC0000327B689B68214913434B601F4B5B682F
:1035EC0023F474127B68196A7B685B6A0B431B4972
:1035FC0013434B601B4B01221A60FEF7A9FA38618A
:10360C0008E0FEF7A5FA02463B69D31A022B01D952
:10361C0003233DE0114B1B6803F00073002BF0D02B
:10362C0035E0104B00221A60FEF792FA386108E080
:10363C00FEF78EFA02463B69D31A022B01D90323FB
:10364C0026E0064B1B6803F00073002BF0D11EE044
:10365C007B68DB69012B07D1012319E000100240C4
:10366C0000700040600042420B4B5B68FB60FB68E3
:10367C0003F480327B681B6A9A4206D1FB6803F420
:10368C0070127B685B6A9A4201D0012300E0002330
:10369C0018461837BD4680BD0010024080B584B076
:1036AC0000AF786039607B68002B01D10123D0E03A
:1036BC006A4B1B6803F007033A689A4210D9674BB0
:1036CC001B6823F0070265493B6813430B60634B8F
:1036DC001B6803F007033A689A4201D00123B8E053
:1036EC007B681B6803F00203002B20D07B681B68EF
:1036FC0003F00403002B05D0594B5B68584A43F484
:10370C00E06353607B681B6803F00803002B05D053
:10371C00534B5B68524A43F460535360504B5B68A5
:10372C0023F0F0027B689B684D4913434B607B6828
:10373C001B6803F00103002B40D07B685B68012BF6
:10374C0007D1474B1B6803F40033002B15D1012321
:10375C007FE07B685B68022B07D1414B1B6803F051
:10376C000073002B09D1012373E03D4B1B6803F060
:10377C000203002B01D101236BE0394B5B6823F072
:10378C0003027B685B68364913434B60FEF7E0F934
:10379C00F8600AE0FEF7DCF90246FB68D31A41F246
:1037AC008832934201D9032353E02D4B5B6803F01D
:1037BC000C027B685B689B009A42EBD1274B1B6821
:1037CC0003F007033A689A4210D2244B1B6823F08B
:1037DC00070222493B6813430B60204B1B6803F024
:1037EC0007033A689A4201D0012332E07B681B68D8
:1037FC0003F00403002B08D0194B5B6823F4E06240
:10380C007B68DB68164913434B607B681B6803F0CD
:10381C000803002B09D0124B5B6823F460527B68C1
:10382C001B69DB000E4913434B6000F021F8024684
:10383C000B4B5B681B0903F00F030A49CB5C22FAA4
:10384C0003F3094A1360094B1B681846FEF73EF94F
:10385C00002318461037BD4680BD00BF0020024033
:10386C0000100240CC4B000810000020200000206B
:10387C0080B487B000AF0023FB600023BB60002343
:10388C007B6100237B6000233B611E4B5B68FB600C
:10389C00FB6803F00C03042B02D0082B03D027E0A9
:1038AC00194B3B6127E0FB689B0C03F00F03174A95
:1038BC00D35C7B60FB6803F48033002B10D0114B7E
:1038CC005B685B0C03F00103114AD35CBB607B6843
:1038DC000D4A03FB02F2BB68B2FBF3F37B6104E01D
:1038EC007B680C4A02FB03F37B617B693B6102E062
:1038FC00054B3B6100BF3B6918461C37BD4680BC7D
:10390C00704700BF0010024000127A00E44B000820
:10391C00F44B000800093D0080B400AF024B1B685B
:10392C001846BD4680BC70471000002080B500AF23
:10393C00FFF7F2FF0246054B5B681B0A03F0070317
:10394C000349CB5C22FA03F3184680BD00100240F9
:10395C00DC4B000880B485B000AF78600A4B1B6864
:10396C000A4AA2FB03235B0A7A6802FB03F3FB609F
:10397C0000BFFB685A1EFA60002BF9D100BF00BFD4
:10398C001437BD4680BC704710000020D34D621028
:10399C0080B582B000AF78607B68002B01D1012329
:1039AC0041E07B6893F83D30DBB2002B06D17B689D
:1039BC00002283F83C207868FDF752FA7B680222DB
:1039CC0083F83D207B681A687B68043319461046DF
:1039DC0000F0A2FA7B68012283F846207B68012262
:1039EC0083F83E207B68012283F83F207B6801220C
:1039FC0083F840207B68012283F841207B680122F8
:103A0C0083F842207B68012283F843207B680122E3
:103A1C0083F844207B68012283F845207B680122CF
:103A2C0083F83D20002318460837BD4680BD0000B2
:103A3C0080B485B000AF78607B6893F83D30DBB222
:103A4C00012B01D001233AE07B68022283F83D2050
:103A5C007B681B68DA687B681B6842F00102DA60DD
:103A6C007B681B68184A93420ED07B681B68B3F1C5
:103A7C00804F09D07B681B68144A934204D07B6842
:103A8C001B68134A934211D17B681B689B6803F037
:103A9C000703FB60FB68062B10D07B681B681A6859
:103AAC007B681B6842F001021A6007E07B681B68A8
:103ABC001A687B681B6842F001021A6000231846E2
:103ACC001437BD4680BC7047002C014000040040F8
:103ADC000008004080B483B000AF78607B681B683E
:103AEC00DA687B681B6822F00102DA607B681B686D
:103AFC001A6A41F211131340002B0FD17B681B681B
:103B0C001A6A40F244431340002B07D17B681B68B0
:103B1C001A687B681B6822F001021A607B6801221C
:103B2C0083F83D20002318460C37BD4680BC7047F7
:103B3C0080B582B000AF78607B681B681B6903F0AE
:103B4C000203022B22D17B681B68DB6803F00203A3
:103B5C00022B1BD17B681B686FF002021A617B6819
:103B6C0001221A777B681B689B6903F00303002B07
:103B7C0003D0786800F0B4F905E0786800F0A7F994
:103B8C00786800F0B6F97B6800221A777B681B68AE
:103B9C001B6903F00403042B22D17B681B68DB68D0
:103BAC0003F00403042B1BD17B681B686FF0040229
:103BBC001A617B6802221A777B681B689B6903F485
:103BCC004073002B03D0786800F08AF905E0786820
:103BDC0000F07DF9786800F08CF97B6800221A7788
:103BEC007B681B681B6903F00803082B22D17B68D8
:103BFC001B68DB6803F00803082B1BD17B681B6870
:103C0C006FF008021A617B6804221A777B681B68C4
:103C1C00DB6903F00303002B03D0786800F060F934
:103C2C0005E0786800F053F9786800F062F97B6879
:103C3C0000221A777B681B681B6903F01003102B9A
:103C4C0022D17B681B68DB6803F01003102B1BD19F
:103C5C007B681B686FF010021A617B6808221A7768
:103C6C007B681B68DB6903F44073002B03D0786816
:103C7C0000F036F905E0786800F029F9786800F072
:103C8C0038F97B6800221A777B681B681B6903F084
:103C9C000103012B0ED17B681B68DB6803F0010369
:103CAC00012B07D17B681B686FF001021A617868E1
:103CBC00FDF79CF97B681B681B6903F08003802B64
:103CCC000ED17B681B68DB6803F08003802B07D167
:103CDC007B681B686FF080021A61786800F07BFAD1
:103CEC007B681B681B6903F04003402B0ED17B687B
:103CFC001B68DB6803F04003402B07D17B681B6813
:103D0C006FF040021A61786800F0FCF87B681B6861
:103D1C001B6903F02003202B0ED17B681B68DB682A
:103D2C0003F02003202B07D17B681B686FF0200267
:103D3C001A61786800F046FA00BF0837BD4680BDAE
:103D4C0080B584B000AF786039600023FB737B686A
:103D5C0093F83C30012B01D10223B4E07B680122A3
:103D6C0083F83C207B68022283F83D207B681B682B
:103D7C009B68BB60BB6823F07703BB60BB6823F414
:103D8C007F43BB607B681B68BA689A603B681B68A2
:103D9C00B3F5005F3ED0B3F5005F00F28780B3F55A
:103DAC00805F00F08680B3F5805F7FD8702B1AD0CF
:103DBC00702B7BD8602B50D0602B77D8502B3CD0FD
:103DCC00502B73D8402B58D0402B6FD8302B64D04D
:103DDC00302B6BD8202B60D0202B67D8002B5CD0DD
:103DEC00102B5AD062E07B6818683B6899683B6876
:103DFC005A683B68DB6800F068F97B681B689B6855
:103E0C00BB60BB6843F07703BB607B681B68BA6818
:103E1C009A604FE07B6818683B6899683B685A6801
:103E2C003B68DB6800F051F97B681B689A687B681B
:103E3C001B6842F480429A603CE07B6818683B68DF
:103E4C0059683B68DB681A4600F0C8F87B681B6849
:103E5C005021184600F01FF92CE07B6818683B686D
:103E6C0059683B68DB681A4600F0E6F87B681B680B
:103E7C006021184600F00FF91CE07B6818683B685D
:103E8C0059683B68DB681A4600F0A8F87B681B6829
:103E9C004021184600F0FFF80CE07B681A683B687C
:103EAC001B681946104600F0F6F803E00123FB737B
:103EBC0000E000BF7B68012283F83D207B68002274
:103ECC0083F83C20FB7B18461037BD4680BD80B480
:103EDC0083B000AF786000BF0C37BD4680BC704724
:103EEC0080B483B000AF786000BF0C37BD4680BC97
:103EFC00704780B483B000AF786000BF0C37BD460C
:103F0C0080BC704780B483B000AF786000BF0C37C2
:103F1C00BD4680BC7047000080B485B000AF7860AF
:103F2C0039607B681B68FB607B68294A93420BD025
:103F3C007B68B3F1804F07D07B68264A934203D04D
:103F4C007B68254A934208D1FB6823F07003FB6021
:103F5C003B685B68FA681343FB607B681C4A9342BE
:103F6C000BD07B68B3F1804F07D07B68194A934222
:103F7C0003D07B68184A934208D1FB6823F4407342
:103F8C00FB603B68DB68FA681343FB60FB6823F05B
:103F9C0080023B685B691343FB607B68FA681A60BC
:103FAC003B689A687B68DA623B681A687B689A623D
:103FBC007B68074A934203D13B681A697B681A6392
:103FCC007B6801225A6100BF1437BD4680BC704724
:103FDC00002C0140000400400008004080B487B071
:103FEC0000AFF860B9607A60FB681B6A7B61FB68A4
:103FFC001B6A23F00102FB681A62FB689B693B6138
:10400C003B6923F0F0033B617B681B013A69134366
:10401C003B617B6923F00A037B617A69BB681343BC
:10402C007B61FB683A699A61FB687A691A6200BF26
:10403C001C37BD4680BC704780B487B000AFF860B9
:10404C00B9607A60FB681B6A7B61FB681B6A23F0B2
:10405C001002FB681A62FB689B693B613B6923F4A5
:10406C0070433B617B681B033A6913433B617B697B
:10407C0023F0A0037B61BB681B017A6913437B614E
:10408C00FB683A699A61FB687A691A6200BF1C374F
:10409C00BD4680BC704780B485B000AF7860396095
:1040AC007B689B68FB60FB6823F07003FB603A68DD
:1040BC00FB68134343F00703FB607B68FA689A6064
:1040CC0000BF1437BD4680BC704780B487B000AFCA
:1040DC00F860B9607A603B60FB689B687B617B69C8
:1040EC0023F47F437B613B681A027B681A43BB68ED
:1040FC0013437A6913437B61FB687A699A6000BF4A
:10410C001C37BD4680BC704780B485B000AF78606A
:10411C0039607B6893F83C30012B01D1022346E0D7
:10412C007B68012283F83C207B68022283F83D20C7
:10413C007B681B685B68FB607B681B689B68BB606B
:10414C00FB6823F07003FB603B681B68FA68134341
:10415C00FB607B681B68FA685A607B681B68164AB0
:10416C0093420ED07B681B68B3F1804F09D07B68FB
:10417C001B68124A934204D07B681B68104A934216
:10418C000CD1BB6823F08003BB603B685B68BA68EA
:10419C001343BB607B681B68BA689A607B6801221A
:1041AC0083F83D207B68002283F83C2000231846CE
:1041BC001437BD4680BC7047002C01400004004001
:1041CC000008004080B483B000AF786000BF0C37AB
:1041DC00BD4680BC704780B483B000AF786000BF30
:1041EC000C37BD4680BC7047014B1868704700BF48
:1041FC002800002070B500260C4D0D4C641BA4103B
:10420C00A64209D100F09CFC00260A4D0A4C641B06
:10421C00A410A64205D170BD55F8043B9847013651
:10422C00EEE755F8043B98470136F2E72C4C0008B2
:10423C002C4C00082C4C0008304C0008034602445F
:10424C00934200D1704703F8011BF9E70EB46FF0ED
:10425C00004100B59CB01DAB0290069007910491F3
:10426C000848094953F8042B0591006802A90193E9
:10427C0000F068F80022029B1A701CB05DF804EB89
:10428C0003B07047280000200802FFFF2DE9F0471B
:10429C008E6882469E420C4690461F4638D88A89C4
:1042AC0012F4906F32D0256809690133A5EB01092E
:1042BC0065694B4405EB450505EBD5756D109D42C5
:1042CC0038BF1D46530531D5294600F06FFB064615
:1042DC0050B90C234FF0FF30CAF80030A38943F0DB
:1042EC004003A381BDE8F0874A46216900F0CEFA6D
:1042FC00A38923F4906343F08003A38126614E4489
:10430C0026603E466561A5EB0905A560BE4200D955
:10431C003E4632464146206800F0C6FAA3680020AB
:10432C009B1BA360236833442360DBE72A4600F021
:10433C00B1FB06460028E1D15046216900F0CEFAC7
:10434C00C7E700002DE9F04F98468B8907461B06FE
:10435C000D4614469DB00ED50B6963B9402100F093
:10436C0025FB2860286120B90C233B604FF0FF30FF
:10437C00D1E040236B610023099320238DF8293071
:10438C0030234FF00109CDF80C80DFF8A4818DF8B3
:10439C002A3023469A4613F8012B0AB1252AF9D163
:1043AC00BAEB040B0BD05B46224629463846FFF786
:1043BC006DFF013000F0AA80099A5A4409929AF8CC
:1043CC000030002B00F0A28000234FF0FF32CDE92B
:1043DC0005230AF1010A049307938DF853301A93BD
:1043EC005446052214F8011B514800F041FA049A76
:1043FC00D8B9D00644BF20238DF85330110744BFE1
:10440C002B238DF853309AF800302A2B15D05446B4
:10441C0000204FF00A0C079A214611F8013B303B63
:10442C00092B4ED9B0B1079214E0A0EB080309FA9E
:10443C0003F31343A2460493D2E7039B191D1B6895
:10444C000391002BBBBF5B4242F002020793079320
:10445C00B8BF049223782E2B0CD163782A2B35D13C
:10446C00039B02341A1D1B680392002BB8BF4FF03C
:10447C00FF330593DFF8BCA003225046217800F0EF
:10448C00F7F940B14023A0EB0A0003FA00F0049BBB
:10449C0001340343049314F8011B062226488DF8BB
:1044AC00281000F0E5F9002838D0244B1BBB039BE7
:1044BC00073323F0070308330393099B3344099311
:1044CC0067E70C4601200CFB0232A5E700234FF0F6
:1044DC000A0C194601340593204610F8012B303A8A
:1044EC00092A03D9002BC5D00591C3E70446012343
:1044FC000CFB0121F0E703AB00932A463846104B26
:10450C0004A9AFF30080421C0646D6D1AB895B06EA
:10451C003FF52CAF09981DB0BDE8F08F03AB0093AD
:10452C002A463846064B04A900F07CF8EBE700BF9E
:10453C00F64B0008FC4B0008004C00080000000083
:10454C00994200082DE9F047164699468A680B698E
:10455C0007469342B8BF1346336091F843200C468C
:10456C00DDF820800AB1013333602368990642BF1D
:10457C00336802333360256815F0060506D104F163
:10458C00190AE36832689B1AAB4228DC94F8432082
:10459C00131E226818BF012392062DD449463846B3
:1045AC0004F14302C047013020D02368E56803F0D2
:1045BC000603042B18BF002532684FF00006A368D1
:1045CC0008BFAD1A226908BF25EAE5759342C4BF3E
:1045DC009B1AED181A34B5421AD1002008E00123B9
:1045EC00524649463846C047013003D14FF0FF30A0
:1045FC00BDE8F0870135C4E73020E11881F84300AD
:10460C005A1C94F845102244023382F84310C5E733
:10461C000123224649463846C0470130E6D00136D0
:10462C00D9E700002DE9FF470F7E9146782F804691
:10463C000C469A460C9D01F1430207D8622F0AD80A
:10464C00002F00F0D980582F00F0A48004F142050F
:10465C0084F842703AE0A7F16303152BF6D801A158
:10466C0051F823F0C9460008DD46000859460008F9
:10467C00594600085946000859460008DD4600080E
:10468C005946000859460008594600085946000882
:10469C00EB4700080D470008CD47000859460008B5
:1046AC00594600080D480008594600080D470008F7
:1046BC005946000859460008D54700082B681A1DB2
:1046CC001B682A6004F1420584F842300123A4E0FF
:1046DC0020682968060601F104030AD50E682B60D0
:1046EC00002E03DA2D23764284F843300A235E48E9
:1046FC0019E00E6810F0400F2B6018BF36B2EFE7D0
:10470C002B682068191D2960010601D51E6802E07E
:10471C004606FBD51E886F2F0CBF08230A23524870
:10472C00002184F843106568002DA8BF2168A5609E
:10473C00A4BF21F0040121600EB9002D4DD0154607
:10474C00B6FBF3F103FB1167C75D05F8017D374636
:10475C00BB420E46F4D9082B0BD12368DE0708D5D3
:10476C00236961689942DEBF302305F8013C05F1ED
:10477C00FF35521B22614B4621464046CDF800A026
:10478C0003AAFFF7DFFE01304CD14FF0FF3004B02D
:10479C00BDE8F087344881F845702968236851F8E2
:1047AC00046B29601D0614D5DF0744BF43F02003BA
:1047BC0023601EB9236823F0200323601023AFE786
:1047CC00236843F0200323607823284884F845307D
:1047DC00E3E7590648BFB6B2E6E71546BBE72B68D8
:1047EC002668181D6169286035061B6801D519609B
:1047FC0002E07006FBD51980002315462361BAE749
:10480C002B6800211A1D2A601D686268284600F07A
:10481C002FF808B1401B606063682361002384F8A3
:10482C004330A8E72A46494640462369D047013021
:10483C00ABD023689B0713D4E068039B9842B8BFA6
:10484C001846A4E70123324649464046D04701307A
:10485C009BD00135E36803995B1AAB42F2DCEBE7C2
:10486C00002504F11906F5E7074C0008184C000860
:10487C00034610B5C9B202449342184601D1002038
:10488C0003E0047801338C42F6D110BD0A44914206
:10489C0000F1FF3300D1704710B511F8014B914274
:1048AC0003F8014FF9D110BD884210B501EB020499
:1048BC0002D98442234607D8431EA14208D011F8DE
:1048CC00012B03F8012FF8E7014602448A4200D17C
:1048DC0010BD13F8014D02F8014DF7E738B5054648
:1048EC00002940D051F8043C0C1F002BB8BFE41831
:1048FC0000F010F91C4A136833B963601460284641
:10490C00BDE8384000F00CB9A34208D92068211842
:10491C008B4201BF19685B6809182160EDE71A46E4
:10492C005B680BB1A342FAD911685018A0420BD1A5
:10493C0020680144501883421160E0D118685B680C
:10494C00014411605360DAE702D90C232B60D6E7DF
:10495C00206821188B4201BF19685B680918216017
:10496C0063605460CBE738BDCC01002070B50E4EAF
:10497C000C463168054611B900F0BCF83060214690
:10498C00284600F0B7F8431C0AD0C41C24F00304DA
:10499C00A04207D0211A284600F0ACF8013001D112
:1049AC004FF0FF34204670BDD00100202DE9F041BE
:1049BC00CD1C25F0030508350C2D38BF0C25002D1A
:1049CC00074601DBA94205D90C2300263B60304683
:1049DC00BDE8F0812E4E00F09DF833681C4634BBC8
:1049EC0029463846FFF7C2FF431C04464DD13468B4
:1049FC002646002E40D123683146384604EB030886
:104A0C0000F078F880453AD1216803356D1A25F00D
:104A1C00030508350C2D38BF0C2538462946FFF701
:104A2C00A5FF01302BD023682B4423600EE02268B5
:104A3C00521B1ED40B2A16D96119A342256018BF2C
:104A4C005960636808BF316062514B60384604F1AD
:104A5C000B0600F065F826F00706231DF21AB6D0F7
:104A6C009B1BA350B3E76268A3420CBF32605A6031
:104A7C00ECE723466468B2E734467668B9E70C2362
:104A8C0038463B6000F04CF8A1E72560DEE700BF3C
:104A9C00CC0100202DE9F041804614460E4621B988
:104AAC001146BDE8F041FFF781BF2AB9FFF716FFA9
:104ABC0025462846BDE8F08100F038F884420746C8
:104ACC0002D8B4EB500F12D821464046FFF76EFFC8
:104ADC0005460028EDD0BC422246314628BF3A4656
:104AEC00FFF7D4FE31464046FFF7F8FEE1E73546C6
:104AFC00DFE7000038B50023054D044608462B605F
:104B0C00FCF714FA431C02D12B6803B1236038BDA7
:104B1C00D4010020014800F011B800BFD8010020DA
:104B2C00014800F00CB800BFD801002051F8043C3B
:104B3C00181F002BBCBF0B58C0187047704770472C
:104B4C00F8B500BFF8BC08BC9E467047F8B500BF6E
:084B5C00F8BC08BC9E4670473E
:104B64000000000040000000140000005400000099
:104B740053756E004D6F6E00547565005765640083
:104B8400546875004672690053617400256400001E
:104B9400744B0008784B00087C4B0008804B0008DD
:104BA400844B0008884B00088C4B0008256C64007B
:104BB40053455420414C41524D00000053544F5032
:104BC400205741544348000000000000000000004A
:104BD400010203040607080900000000010203049F
:104BE40002030405060708090A0B0C0D0E0F10102A
:104BF4000102232D302B2000686C4C00656667454C
:104C04004647003031323334353637383941424340
:104C140044454600303132333435363738396162F1
:084C24006364656600000000F6
:044C2C00310100084A
:044C30000D0100086A
:104C340000191B060C1B13001818060908090600A6
:104C44000024F40001070000180000000100000027
:104C540010000000010000002C00002000000000F3
:104C64000000000000000000000000000000000040
:104C74000000000000000000000000000000000030
:104C84000000000000000000000000000000000020
:104C94000000000000000000000000000000000010
:104CA4000000000000000000000000000000000000
:0C4CB400000000000000000000000000F4
:0400000508001A6174
:00000001FF
